:100000000C942A000C9434000C9434000C943400AA
:100010000C9434000C9434000C9434000C94340090
:100020000C9434000C9434000C9434000C94340080
:100030000C9434000C9434000C9434000C94340070
:100040000C9434000C9434000C9434000C94340060
:100050000C94340011241FBECFE5D8E0DEBFCDBF25
:100060000E9436000C9442000C9400008FEF87BB76
:1000700011BA80E490E318BA829B88BB8399FBCFC6
:0800800098BBF9CFF894FFCF03
:00000001FF
