:100000000C942A000C9436000C9434000C943400A8
:100010000C9434000C9434000C9434000C94340090
:100020000C9434000C9434000C9434000C94340080
:100030000C9434000C9434000C9434000C94340070
:100040000C9434000C9434000C9434000C94340060
:100050000C94340011241FBECFE5D8E0DEBFCDBF25
:100060000E9448000C9466000C9400001F920F92AE
:100070000FB60F9211248F939F9395B382E0892737
:1000800085BB9F918F910F900FBE0F901F90189579
:1000900080EC84BB85B7816085BF8BB780648BBFE4
:1000A0007894A89A2FEB87E299E021508040904005
:1000B000E1F700C00000A8982FEB87E299E02150FB
:1000C00080409040E1F700C00000EBCFF894FFCFF4
:00000001FF
