:100000000C942A000C943F000C943F000C943F0089
:100010000C943F000C943F000C943F000C943F0064
:100020000C943F000C943F000C943F000C943F0054
:100030000C943F000C943F000C943F000C943F0044
:100040000C943F000C943F000C943F000C943F0034
:100050000C943F0011241FBECFE5D8E0DEBFCDBF1A
:1000600010E0A0E6B0E0ECE6F6E002C005900D92EC
:10007000AC38B107D9F70E9418010C9434030C94E2
:100080000000969A00C096980895CF93C82F6623D3
:1000900011F0949A01C094989598A49AA59AA69A5A
:1000A000A79AAF98AE98AD98AC98CC230CF4AF9AC1
:1000B000C6FDAE9AC5FDAD9AC4FDAC9A0E94410042
:1000C000AF98AE98AD98AC98C3FDAF9AC2FDAE9A0A
:1000D000C1FDAD9AC0FDAC9A0E944100AC9AAD9AA8
:1000E000AE9AAF9ACF910895882311F0949A01C0E7
:1000F0009498959AA498A598A698A798969A00C0BF
:100100009C9902C080E001C080E19D9980629E9927
:1001100080649F998068969800C0969A00C09C99C8
:1001200081609D9982609E9984609F99886096986D
:10013000089580E00E9474008823DCF300C080E012
:100140000E9474000895CF93C82F0E94990060E028
:100150008C2F0E944500CF910895611104C08058F2
:100160000E94A300089580540E94A300089581E096
:100170000E94A3000895CF93C82F0E949900CA300F
:1001800049F4803410F480E401C080E080580E947B
:10019000A30004C061E08C2F0E944500CF91089518
:1001A000CF93DF93EC012196FC018081882329F015
:1001B0000E94BB0089918111FBCFDF91CF910895FF
:1001C000CF93C82F8C9A8D9A8E9AA49AA59AA69AA4
:1001D000A79AE0EAFFE03197F1F7AD9AAC9A0E9456
:1001E0004100E0EEF4E03197F1F70E944100E0E1D8
:1001F000F0E03197F1F70E944100E0E1F0E0319743
:10020000F1F7AC980E944100E0E1F0E03197F1F79E
:1002100088E20E94A30088E00E94A3000E94B70029
:1002200086E00E94A3008C2F0E94A300CF91089526
:10023000CF93DF93CDB7DEB72B970FB6F894DEBF21
:100240000FBECDBF84B7806884BF84B7806884BF89
:100250008A988CE00E94E00060E080E00E94AD009F
:1002600080E690E00E94D00061E080E00E94AD0056
:1002700081E790E00E94D0008299EECFD0C00E942A
:10028000B7006894AA24A4F80F2EFEE0BF2EF02D2C
:10029000C12CD12CE12CF12C00E010E02C813D810F
:1002A0004E815F81688579858A859B850E941E02C3
:1002B000F22FE32F283E33404105510561057105BA
:1002C0008105910571F48AE790E00E94D000EFE784
:1002D00024E88EE1E15020408040E1F700C00000BA
:1002E000BBCF4AE0BE016F5F7F4F8F2F9E2F0E94D2
:1002F000FF0260E080E00E94AD00CE0101960E9406
:10030000D00060E083E00E94AD0088E40E94BB0062
:100310006894AA24A4F80F2EFEE0BF2EF02DC12C65
:10032000D12CE12CF12C00E010E0222D332D442DB6
:10033000552D662D772D882D992D0E941C020F2E8C
:10034000FCE3AF2EF02DB12C0E941E024AE0BE014C
:100350006F5F7F4F822F932F0E94FF0260E085E046
:100360000E94AD00CE0101960E94D00060E087E0BF
:100370000E94AD0083E890E00E94D000222D332D32
:10038000442D552D662D772D882D992D0E941C0208
:100390004AE0BE016F5F7F4F822F932F0E94FF02C2
:1003A00060E08BE00E94AD00CE0101960E94D0007B
:1003B00060E08DE00E94AD0087E890E00E94D000F0
:1003C0009FE3ADE0E3E09150A040E040E1F700C0E2
:1003D0000000222D332D442D552D662D772D882D8F
:1003E000992DA1E00E94F3022C833D834E835F830D
:1003F000688779878A879B87222E332E442E552E35
:10040000662E772E882E992E2115384E4647584451
:10041000674171058105910509F031CF1DCF0E941B
:10042000B700212C312C412C512C612C712C812CAA
:10043000912CF0E0E0E055CF689401C0E894F92FEA
:10044000F12B12F00C945002A0E0B0E0EAE2F2E0EE
:100450000C94C202092E059422F40E94AC021123CE
:1004600092F4F0E80F26FFEFE094F09400951095D9
:10047000B094C094D094A194BF0ACF0ADF0AEF0AC7
:10048000FF0A0F0B1F0B0E945B0207FC0E94AC02CD
:10049000CDB7DEB7ECE00C94DE02689401C0E894BE
:1004A0008F929F92CF93DF930E945B02DF91CF9157
:1004B0009F908F90089588249924F401E401B0E47A
:1004C0009F93AA279A158B049C04ED05FE05CF0582
:1004D000D007A10798F4AD2FDC2FCF2FFE2FE92DE9
:1004E000982C892E982F872F762F652F542F432FE6
:1004F000322F2227B85031F7BF9127C01B2EBF9152
:10050000BB27220F331F441F551F661F771F881FED
:10051000991F881C991CEE1FFF1FCC1FDD1FAA1FEF
:10052000BB1F8A149B04EC05FD05CE05DF05A00763
:10053000B10748F08A189B08EC09FD09CE09DF09CC
:10054000A00BB10B21601A94E1F62EF49401AF01D7
:10055000BE01CD01000C0895609570958095909531
:1005600030954095509521953F4F4F4F5F4F6F4FBE
:100570007F4F8F4F9F4F08952F923F924F925F92E0
:100580006F927F928F929F92AF92BF92CF92DF92A3
:10059000EF92FF920F931F93CF93DF93CDB7DEB708
:1005A000CA1BDB0B0FB6F894DEBF0FBECDBF09949C
:1005B0002A88398848885F846E847D848C849B84F3
:1005C000AA84B984C884DF80EE80FD800C811B8101
:1005D000AA81B981CE0FD11D0FB6F894DEBF0FBE30
:1005E000CDBFED0108950024A7FD00942A0F301D12
:1005F000401D501D601D701D801D901D0895BB275E
:100600004A3031F4992322F4BDE2909581959F4FB1
:100610000C940B03BB27FB015527AA27880F991FB2
:10062000AA1FA41710F0A41B83955051B9F7A05D21
:10063000AA3308F0A95DA193009779F7B111B1939E
:100640001192CB010C942403DC01FC01672F719102
:100650007723E1F7329704C07C916D9370836291A8
:0C066000AE17BF07C8F30895F894FFCF51
:10066C0050726573732074686520627574746F6E54
:10067C0000746F207374617274006F766572666CAF
:0C068C006F77004D494E0073656300005D
:00000001FF
