:100000000C942A000C943F000C943F000C943F0089
:100010000C943F000C943F000C943F000C943F0064
:100020000C943F000C943F000C943F000C943F0054
:100030000C943F000C943F000C943F000C943F0044
:100040000C943F000C943F000C943F000C943F0034
:100050000C943F0011241FBECFE5D8E0DEBFCDBF1A
:1000600010E0A0E6B0E0E0ECF0E002C005900D92F8
:10007000A437B107D9F70E9441000C945E000C949C
:1000800000008FEF87BB80E090E040E030E0FC01B3
:10009000EE0FFF1FE05AFF4F208128BB2FE35DE0EA
:1000A00063E0215050406040E1F700C0000001963D
:1000B0008A30910564F3842F932FE9CFF894FFCF12
:1000C0003F0006005B004F0066006D007D000700EA
:1000D0007F006F00FFFFFFFFFFFFFFFFFFFFFFFF3E
:00000001FF
