S01A00006C63642D636C6F636B5F64656C61795F6D652E73726563FF
S11300000C942A000C9447000C9447000C9447006D
S11300100C9447000C9447000C9447000C94470040
S11300200C9447000C9447000C9447000C94470030
S11300300C9447000C9447000C9447000C94470020
S11300400C9447000C9447000C9447000C94470010
S11300500C94470011241FBECFE5D8E0DEBFCDBF0E
S113006010E0A0E6B0E0ECECFDE002C005900D92DB
S1130070A238B107D9F720E0A2E8B0E001C01D9290
S1130080A73CB207E1F70E94D5010C94E4060C9456
S11300900000CF93DF93C62FD42F4AE062EC70E0C8
S11300A00E94AF066D2F8C2F0E942A0582EC90E0EF
S11300B00E944D05DF91CF91089520918A003091DF
S11300C08B0040918C0050918D0060918E00709156
S11300D08F008091900090919100A1E00E94A3066E
S11300E089F410928A0010928B0010928C00109266
S11300F08D0010928E0010928F001092900010923A
S11301009100089581E080938A0010928B001092F0
S11301108C0010928D0010928E0010928F0010921D
S11301209000109291000895DF92EF92FF920F9346
S11301301F93CF93DF93809970C0CAEAD0E060E048
S113014080E00E942A0580E690E00E944D0540E090
S113015050E06AE070E0888199810E9449008299A8
S113016052C0D090AA00E090AB00F090AC00009197
S1130170AD001091AE00B091AF00F091B000E091ED
S1130180B1002D2D3E2D4F2D502F612F7B2F8F2F02
S11301909E2FACE00E94A30691F481E08093AA0014
S11301A01092AB001092AC001092AD001092AE0011
S11301B01092AF001092B0001092B1001BC02D2D10
S11301C03E2D4F2D502F612F7B2F8F2F9E2FA1E07F
S11301D00E948E062093AA003093AB004093AC009B
S11301E05093AD006093AE007093AF008093B00065
S11301F09093B1002FE986E891E02150804090402F
S1130200E1F700C0000087EA91E60197F1F700C02A
S113021000000E943405809B92CFDF91CF911F9103
S11302200F91FF90EF90DF900895DF92EF92FF928D
S11302300F931F93CF93DF9380996FC0CAE9D0E0E7
S113024060E080E00E942A0589E690E00E944D0566
S113025040E050E06CE070E0888199810E944900A0
S1130260829951C0D0909A00E0909B00F0909C003D
S113027000919D0010919E00B0919F00F091A0000C
S1130280E091A1002D2D3E2D4F2D502F612F7B2F5E
S11302908F2F9E2FABE30E94A30689F410929A003D
S11302A010929B0010929C0010929D0010929E0050
S11302B010929F001092A0001092A1001BC02D2D3F
S11302C03E2D4F2D502F612F7B2F8F2F9E2FA1E07E
S11302D00E948E0620939A0030939B0040939C00CA
S11302E050939D0060939E0070939F008093A000A4
S11302F09093A1002FE986E891E02150804090403E
S1130300E1F700C0000087EA91E60197F1F700C029
S113031000000E943405809B93CFDF91CF911F9101
S11303200F91FF90EF90DF9008953CC060E080E073
S11303300E942A0520918A0030918B0040918C0004
S113034050918D0060918E0070918F00809190008B
S113035090919100A0E00E94A30629F484E790E024
S11303600E944D0504C087E790E00E944D0583E29A
S113037094EF0197F1F700C000000E94340587EA6A
S113038091E60197F1F700C0000082990BC00E942A
S11303905D009FE926E881E0915020408040E1F72C
S11303A000C00000809BC2CF089584B7806884BFDA
S11303B084B7806884BF8A9888988CE00E945D0521
S11303C08CE08093AA001092AB001092AC001092C3
S11303D0AD001092AE001092AF001092B0001092D7
S11303E0B100109292001092930010929400109217
S11303F09500109296001092970010929800109217
S1130400990010929A0010929B0010929C001092F6
S11304109D0010929E0010929F001092A0001092D6
S1130420A10010928A0010928B0010928C001092FE
S11304308D0010928E0010928F00109290001092F6
S113044091000E9494002FE38DE093E021508040BE
S11304509040E1F700C000000E941501EFE32DE099
S113046083E0E15020408040E1F700C000000E949A
S113047095010E943405F090AA000091AB00109100
S1130480AC00D091AD00C091AE00B091AF00F0913E
S1130490B000E091B1002F2D302F412F5D2F6C2F34
S11304A07B2F8F2F9E2FACE00E94A30689F410921D
S11304B0BA001092BB001092BC001092BD001092C2
S11304C0BE001092BF001092C0001092C10010C074
S11304D0F092BA000093BB001093BC00D093BD000F
S11304E0C093BE00B093BF00F093C000E093C1007E
S11304F0A090BA00B090BB00C090BC00D090BD00EA
S1130500E090BE00F090BF00E091C0001091C100E7
S11305102A2D3B2D4C2D5D2D6E2D7F2D8E2F912F51
S113052004E00E946C060E2F0E949A06A22EB32E9F
S1130530C42ED52EE62EF72EE82F192F04E00E94A4
S11305406C060E2F0E949A0604E00E946C06722E1E
S1130550832E942ED52FC62FB72FA82FF92FA09016
S11305609A00B0909B00C0909C00D0909D00E090B9
S11305709E00F0909F00E091A0001091A1002A2D10
S11305803B2D4C2D5D2D6E2D7F2D8E2F912F0E9496
S11305906C060E2F0E949A0602E00E946C06A22EA0
S11305A0B32EC42ED52EE62EF72E082F192F272D65
S11305B0382D492D5D2F6C2F7B2F8A2F9F2F0E9462
S11305C085062093B2003093B3004093B400509357
S11305D0B5006093B6007093B7008093B800909311
S11305E0B900CAEAD0E00F2EFCE09F2EF02D209136
S11305F0B2003091B3004091B4005091B5006091C5
S1130600B6007091B7008091B8009091B900209322
S1130610A2003093A3004093A4005093A5006093DC
S1130620A6007093A7008093A8009093A9002F3B85
S1130630384A41055105610571058105910509F0A7
S1130640B4F61092B2001092B3001092B40010925B
S1130650B5001092B6001092B7001092B800109234
S1130660B9000E94340560E085E00E942A058AE70B
S113067090E00E944D052091A2003091A30040918A
S1130680A4005091A5006091A6007091A7008091EC
S1130690A8009091A9002093820030938300409396
S11306A08400509385006093860070938700809344
S11306B08800909389006894AA24A4F80F2EFEE081
S11306C0BF2EF02DC12CD12CE12CF12C00E010E038
S11306D00E949705D22EE32EF42E052F162FB72F46
S11306E0F82FE92F2093BA003093BB004093BC004D
S11306F05093BD006093BE007093BF008093C00010
S11307009093C100A0E00E94A30609F08CF490929B
S1130710AA001092AB001092AC001092AD0010929F
S1130720AE001092AF001092B0001092B10010C051
S1130730D092AA00E092AB00F092AC000093AD001E
S11307401093AE00B093AF00F093B000E093B1000B
S113075041E050E061E070E0888199810E944900A5
S113076061E084E00E942A058AE30E943805209112
S1130770A2003091A3004091A4005091A500609183
S1130780A6007091A7006894AA24A4F80F2EFEE096
S1130790BF2EF02DC12CD12CE12CF12C00E010E067
S11307A08091A8009091A9000E9495052093820051
S11307B030938300409384005093850060938600B7
S11307C07093870080938800909389000F2EFCE338
S11307D0AF2EF02DB12C0E94970520939A003093F0
S11307E09B0040939C0050939D0060939E007093E7
S11307F09F008093A0009093A10041E050E066E048
S113080070E0822F932F0E94490061E089E00E94EA
S11308102A058AE30E9438052091A2003091A300A2
S11308204091A4005091A5006091A6007091A7008A
S11308308091A8009091A9000E94950520938200C0
S11308403093830040938400509385006093860026
S1130850709387008093880090938900209392007E
S113086030939300409394005093950060939600C6
S113087070939700809398009093990041E050E022
S11308806BE070E0822F932F0E94490020918A0030
S113089030918B0040918C0050918D0060918E00BE
S11308A070918F008091900090919100A0E00E943F
S11308B0A30649F461E08EE00E942A0584E790E0F3
S11308C00E944D0508C061E08EE00E942A0587E77A
S11308D090E00E944D052091A2003091A300409128
S11308E0A4005091A5006091A6007091A70080918A
S11308F0A8009091A9002F3B384A41055105610594
S113090071058105910511F40E945D002FE289E0D3
S113091093E0215080409040E1F700C00000209116
S1130920A2003091A3004091A4005091A5006091D1
S1130930A6007091A7008091A8009091A900A1E061
S11309400E948E062093A2003093A3004093A4003B
S11309505093A5006093A6007093A7008093A8000D
S11309609093A9002F3B384A410551056105710553
S11309708105910509F00CF464CE39CE969A00C035
S113098096980895CF93C82F662311F0949A01C0C6
S113099094989598A49AA59AA69AA79AAF98AE986F
S11309A0AD98AC98CC230CF4AF9AC6FDAE9AC5FDB5
S11309B0AD9AC4FDAC9A0E94BE04AF98AE98AD98AF
S11309C0AC98C3FDAF9AC2FDAE9AC1FDAD9AC0FD0D
S11309D0AC9A0E94BE04AC9AAD9AAE9AAF9ACF91EB
S11309E00895882311F0949A01C09498959AA49834
S11309F0A598A698A798969A00C09C9902C080E0F2
S1130A0001C080E19D9980629E9980649F9980686D
S1130A10969800C0969A00C09C9981609D998260C6
S1130A209E9984609F9988609698089580E00E94BA
S1130A30F1048823DCF300C080E00E94F1040895EF
S1130A40CF93C82F0E94160560E08C2F0E94C20429
S1130A50CF910895611104C080580E942005089523
S1130A6080540E942005089581E00E942005089585
S1130A70CF93C82F0E941605CA3049F4803410F46D
S1130A8080E401C080E080580E94200504C061E039
S1130A908C2F0E94C204CF910895CF93DF93EC0171
S1130AA02196FC018081882329F00E9438058991D0
S1130AB08111FBCFDF91CF910895CF93C82F8C9AEA
S1130AC08D9A8E9AA49AA59AA69AA79AE0EAFFE02C
S1130AD03197F1F7AD9AAC9A0E94BE04E0EEF4E0CF
S1130AE03197F1F70E94BE04E0E1F0E03197F1F7AD
S1130AF00E94BE04E0E1F0E03197F1F7AC980E9467
S1130B00BE04E0E1F0E03197F1F788E20E942005AD
S1130B1088E00E9420050E94340586E00E9420059A
S1130B208C2F0E942005CF910895689401C0E89409
S1130B30F92FF12B12F00C94C905A0E0B0E0E3EA20
S1130B40F5E00C943B06092E059422F40E94250638
S1130B50112392F4F0E80F26FFEFE094F09400954F
S1130B601095B094C094D094A194BF0ACF0ADF0A20
S1130B70EF0AFF0A0F0B1F0B0E94D40507FC0E940B
S1130B802506CDB7DEB7ECE00C945706689401C097
S1130B90E8948F929F92CF93DF930E94D405DF91C4
S1130BA0CF919F908F90089588249924F401E401B3
S1130BB0B0E49F93AA279A158B049C04ED05FE05C7
S1130BC0CF05D007A10798F4AD2FDC2FCF2FFE2F30
S1130BD0E92D982C892E982F872F762F652F542F47
S1130BE0432F322F2227B85031F7BF9127C01B2E35
S1130BF0BF91BB27220F331F441F551F661F771F4A
S1130C00881F991F881C991CEE1FFF1FCC1FDD1F16
S1130C10AA1FBB1F8A149B04EC05FD05CE05DF0546
S1130C20A007B10748F08A189B08EC09FD09CE0912
S1130C30DF09A00BB10B21601A94E1F62EF49401A4
S1130C40AF01BE01CD01000C0895609570958095AB
S1130C50909530954095509521953F4F4F4F5F4F5C
S1130C606F4F7F4F8F4F9F4F08952F923F924F9218
S1130C705F926F927F928F929F92AF92BF92CF9228
S1130C80DF92EF92FF920F931F93CF93DF93CDB731
S1130C90DEB7CA1BDB0B0FB6F894DEBF0FBECDBFA9
S1130CA009942A88398848885F846E847D848C847A
S1130CB09B84AA84B984C884DF80EE80FD800C8183
S1130CC01B81AA81B981CE0FD11D0FB6F894DEBF66
S1130CD00FBECDBFED0108950F93083090F0982F0B
S1130CE0872F762F652F542F432F322F222708501A
S1130CF0F4CF220F331F441F551F661F771F881F11
S1130D00991F0A95B2F70F9108952A0D3B1D4C1DAA
S1130D105D1D6E1D7F1D801F911F08950024A7FD7A
S1130D2000942A0F301D401D501D601D701D801D34
S1130D30901D08952A193B094C095D096E097F0924
S1130D40800B910B08950024A7FD00942A17300509
S1130D504005500560057005800590050895BB2782
S1130D604A3031F4992322F4BDE2909581959F4F46
S1130D700C94BB06BB27FB015527AA27880F991F94
S1130D80AA1FA41710F0A41B83955051B9F7A05DB6
S1130D90AA3308F0A95DA193009779F7B111B19333
S1130DA01192CB010C94D406DC01FC01672F7191E4
S1130DB07723E1F7329704C07C916D93708362913D
S10F0DC0AE17BF07C8F30895F894FFCFE6
S1130DCC53657420486F757200536574206D696E99
S1130DDC75746500414D00504D00434C4F434B3AE4
S1050DEC000001
S9030000FC
