S01F00004F62737461636C652041766F6964696E6720526F626F742E7372656361
S11300000C942A000C9434000C9434000C943400A6
S11300100C9434000C9434000C9434000C9434008C
S11300200C9434000C9434000C9434000C9434007C
S11300300C9434000C9434000C9434000C9434006C
S11300400C9434000C9434000C9434000C9434005C
S11300500C94340011241FBECFE5D8E0DEBFCDBF21
S11300600E9464000C94E6000C9400008C9A8D9A13
S11300708FB581608FBD8EB588608EBD8FB5806A67
S11300808FBD8EB582608EBD84E690E09BBD8ABD37
S113009099BD88BD0895C09AC198C29AC39808951D
S11300A0C098C19AC298C39A0895C098C19AC29A36
S11300B0C3980895C09AC198C298C39A0895C198E4
S11300C0C098C398C29808958FEF81BB87BB0E94E4
S11300D036002FE382E49FE0215080409040E1F716
S11300E000C000000E944B002FE38DE093E02150FC
S11300F080409040E1F700C000000E9450002FE3D0
S11301008DE093E0215080409040E1F700C0000072
S11301100E945F002FEF84E39CE0215080409040D8
S1130120E1F700C000000E945A008BE594E40197B7
S1130130F1F700C000000E945F009FE72AE186E01B
S1130140915020408040E1F700C000000E9455001B
S113015085E391EF0197F1F700C000000E945F0072
S11301609FE72AE186E0915020408040E1F700C0FB
S113017000000E945A009FE92DE681E09150204042
S11301808040E1F700C000000E945F009FE72AE181
S113019086E0915020408040E1F700C000000E94BA
S11301A055009FED23E083E0915020408040E1F72B
S11301B000C000000E945F009FE72AE186E09150A2
S11301C020408040E1F700C0000083CFF894FFCFC7
S9030000FC
