:100000000C942A000C9447000C9447000C94470071
:100010000C9447000C9447000C9447000C94470044
:100020000C9447000C9447000C9447000C94470034
:100030000C9447000C946A000C9496000C944700B2
:100040000C9447000C9447000C9447000C94470014
:100050000C94470011241FBECFE5D8E0DEBFCDBF12
:1000600010E0A0E6B0E0EEE7F2E002C005900D92ED
:10007000AA37B107D9F720E0AAE7B0E001C01D9286
:10008000A63CB207E1F70E9449000C943D010C9494
:1000900000008CE090E00E94BB0078948FEF87BB5B
:1000A00084E50E94E80080E690E00E94F9004AE0C2
:1000B0006FEB70E089E390E30E9408018FEB90E022
:1000C0000E94F900C1E00E94CF008F5F0E94E8000B
:1000D000C8BBF9CF1F920F920FB60F9211242F9326
:1000E0008F939F93EF93FF938BB12CB18871E09125
:1000F0007C00EF5FEF7190917B00E91739F0E0939E
:100100007C00F0E0E158FF4F208301C082E0909135
:100110007A00892B80937A00FF91EF919F918F91C4
:100120002F910F900FBE0F901F9018951F920F9256
:100130000FB60F9211248F939F93EF93FF9390919B
:100140007E0080917D00981761F0E0917D00EF5F67
:10015000EF71E0937D00F0E0E156FF4F80818CB9B4
:1001600001C05598FF91EF919F918F910F900FBE15
:100170000F901F90189510927E0010927D001092A3
:100180007C0010927B0099231CF422E02BB99F770E
:1001900090BD89B988E98AB986E880BD08959091B3
:1001A0007C0080917B00981781F0E0917B00EF5FED
:1001B000EF71E0937B00F0E0E158FF4F8081909178
:1001C0007A0010927A0090E0089580E091E008951E
:1001D00020917E002F5F2F7190917D002917E1F310
:1001E000E22FF0E0E156FF4F808320937E00559A86
:1001F0000895CF93DF93EC018881882331F0219615
:100200000E94E80089918111FBCFDF91CF91089581
:10021000BB274A3031F4992322F4BDE290958195B1
:100220009F4F0C941401BB27FB015527AA27880F69
:10023000991FAA1FA41710F0A41B83955051B9F75A
:10024000A05DAA3308F0A95DA193009779F7B111D9
:10025000B1931192CB010C942D01DC01FC01672FAD
:1002600071917723E1F7329704C07C916D9370838D
:0E0270006291AE17BF07C8F30895F894FFCF50
:10027E005468697320697320612074657374205308
:0A028E007472696E672E2E2E0000B8
:00000001FF
