S01900006C656420626C696E6B696E675F6D655F322E73726563A6
S11300000C942A000C9434000C9434000C943400A6
S11300100C9434000C9434000C9434000C9434008C
S11300200C9434000C9434000C9434000C9434007C
S11300300C9434000C9434000C9434000C9434006C
S11300400C9434000C9434000C9434000C9434005C
S11300500C94340011241FBECFE5D8E0DEBFCDBF21
S11300600E9436000C9440030C940000CF93DF935D
S113007000D000D0CDB7DEB784B7806884BF84B722
S1130080806884BF8FEF84BB84B7806884BF81E0BD
S113009090E00F2EF5E08F2EF02D512C6894FF2464
S11300A0F3F800E066246394712CE0E010E8FE2F7E
S11300B00F2EF6E0BF2EF02DA12C6894EE24E4F868
S11300C0D12C6894CC24C3F86894442441F8312C8E
S11300D099249A944A8239823B8219C095BA2FE9AD
S11300E036E841E0215030404040E1F700C00000D4
S11300F015BAAFE9B6E821E0A150B0402040E1F7DD
S113010000C00000019603C0FB2F81E090E0843022
S1130110910524F3482D552D16C085BBABE7B2E9F4
S11301201197F1F700C00000880F991F2150310981
S11301302115310591F7415051094115510519F423
S1130140482D552D22C02F2D302F862D972DE5CFEC
S113015065BB8BE792E90197F1F700C00000862F99
S1130160972F99230CF4019695958795682F792FED
S1130170215031092115310559F7415051094115D3
S1130180510519F4282D352D34C02F2D302F612F12
S11301907F2FDECF85BBABE7B2E91197F1F700C043
S11301A00000880F991F415051094115510591F7DD
S11301B04F2D502F612F7F2F65BB8BE792E901975D
S11301C0F1F700C00000862F972F99230CF40196B5
S11301D095958795682F792F4150510941155105FF
S11301E059F7215031092115310519F4682D752D60
S11301F02BC04F2D502F862D972DCCCFF5B3F82B38
S1130200F5BBF5B3F22BF5BBABE7B2E91197F1F708
S113021000C0000015BAA3EDB0E31197F1F700C0D8
S11302200000880F991F220F331F415051094115B7
S1130230510521F7F32D615071096115710521F400
S1130240482D552D832D3BC04B2D5A2D24E030E0F5
S1130250862D972D3F2ED2CF85B3862B85BB85B3B4
S1130260872B85BB8BE792E90197F1F700C000006B
S1130270E5BB83ED90E30197F1F700C00000862F02
S11302809F2F99230CF4019695958795682FF92F44
S1130290872F9A2F99230CF4019695958795782F9B
S11302A0A92F2150310921153105B1F68B2F415069
S11302B051094115510519F4682D752D34C02B2DA4
S11302C03A2D70E2A82F612FF82FB82FC5CF85B330
S11302D08F2B85BB85B3822B85BB8FE493EC019771
S11302E0F1F700C00000E5BB89E698E10197F1F75A
S11302F000C000008F2F9A2F99230CF40196959536
S11303008795F82FA92F220F331F4150510941150A
S11303105105E9F68B2F615071096115710519F4C6
S1130320682D752D2EC044E050E02E2D3D2DFC2D62
S1130330A82FB82FCCCF85B3822B85BB85B38F2B49
S113034085BB8FE493EC0197F1F700C00000E5BB97
S1130350220F331F8F2F9A2F99230CF40196959512
S11303608795F82FA92F415051094115510519F7C7
S11303708B2F615071096115710519F4482D552DA4
S11303805AC044E050E0F12FA82F262D372DB82F66
S1130390D2CF85B38F2B85BB85B3822B85BB8FE4EE
S11303A093EC0197F1F700C00000E5BB89E698E102
S11303B00197F1F700C000008F2F9A2F99230CF4B6
S11303C0019695958795F82FA92F220F331F615019
S11303D0710961157105E9F664E070E0F12FAB2F46
S11303E0262D372D85B3822B85BB85B38F2B85BBFB
S11303F08FE493EC0197F1F700C00000E5BB220FF6
S1130400331F8F2F9A2F99230CF401969595879576
S1130410F82FA92F615071096115710519F78B2FF8
S1130420415051094115510531F4642D7981AB2FA7
S1130430FA813B8043C064E070E02E2D3D2DFC2DFD
S1130440A82FB82FA6CFF5B3F82BF5BBA9E6B8E1D2
S11304501197F1F700C00000F5B3F22BF5BBABE741
S1130460B2E91197F1F700C00000880F991F220F1D
S1130470331F415051094115510529F7AC81F22D23
S113048015BA8FE493EC0197F1F700C0000095BA18
S11304908FE493EC0197F1F700C0000015BA8FE4E4
S11304A093EC0197F1F700C00000615071096115E8
S11304B0710521F4FA2F242C398051C047E050E013
S11304C02F2F332D862D972DAC832F2EBCCF85B3A4
S11304D0842B85BBA9E6B8E11197F1F700C00000B1
S11304E085B3852B85BB8BE792E90197F1F700C0B3
S11304F00000842F962F99230CF4019695958795E7
S1130500482F692F852F972F99230CF401969595E1
S11305108795582F792F2150310921153105B9F6C6
S1130520E5BBAFE4B3EC1197F1F700C0000095BA56
S11305308FE493EC0197F1F700C00000E5BBAFE452
S1130540B3EC1197F1F700C00000B1E02B1A3108A9
S11305502114310421F4642D7981BF2F46C02F2D3D
S1130560302F50E47F2F412F6F2FB1CF85B38F2BC6
S113057085BB89E698E10197F1F700C0000085B3D7
S1130580822B85BB8BE792E90197F1F700C000004D
S11305908F2F9A2F99230CF4019695958795F82F10
S11305A0A92F220F331F4150510941155105F1F66E
S11305B0E5BB8FE493EC0197F1F700C0000095BA16
S11305C08FE493EC0197F1F700C00000E5BB8FE4E2
S11305D093EC0197F1F700C00000615071096115B7
S11305E0710519F4642D798144C044E050E02E2D46
S11305F03D2DFC2DAB2FBACF85B3822B85BB89E66D
S113060098E10197F1F700C0000085B38F2B85BBFB
S11306108BE792E90197F1F700C00000220F331F26
S11306208F2F9A2F99230CF4019695958795F82F7F
S1130630A92F4150510941155105F1F6E5BB8FE44D
S113064093EC0197F1F700C0000095BA8FE493ECA6
S11306500197F1F700C00000E5BB8FE493EC01972C
S1130660F1F700C00000615071096115710509F4CA
S11306704BCD44E050E0F12FAB2F262D372DBCCFCE
S1070680F894FFCF18
S9030000FC
