S01000006C63645F6D655F312E7372656320
S11300000C942A000C9447000C9447000C9447006D
S11300100C9447000C9447000C9447000C94470040
S11300200C9447000C9447000C9447000C94470030
S11300300C9447000C9447000C9447000C94470020
S11300400C9447000C9447000C9447000C94470010
S11300500C94470011241FBECFE5D8E0DEBFCDBF0E
S113006010E0A0E6B0E0E0E6F6E002C005900D92F4
S1130070AE36B107D9F720E0AEE6B0E001C01D927C
S1130080A238B207E1F70E9420010C942E030C94CD
S11300900000969A00C096980895CF93C82F6623BF
S11300A011F0949A01C094989598A49AA59AA69A46
S11300B0A79AAF98AE98AD98AC98CC230CF4AF9AAD
S11300C0C6FDAE9AC5FDAD9AC4FDAC9A0E94490026
S11300D0AF98AE98AD98AC98C3FDAF9AC2FDAE9AF6
S11300E0C1FDAD9AC0FDAC9A0E944900AC9AAD9A8C
S11300F0AE9AAF9ACF910895882311F0949A01C0D3
S11301009498959AA498A598A698A798969A00C0AA
S11301109C9902C080E001C080E19D9980629E9913
S113012080649F998068969800C0969A00C09C99B4
S113013081609D9982609E9984609F998860969859
S1130140089580E00E947C008823DCF300C080E0F6
S11301500E947C000895CF93C82F0E94A10060E004
S11301608C2F0E944D00CF910895611104C08058D6
S11301700E94AB00089580540E94AB00089581E072
S11301800E94AB000895CF93C82F0E94A100CA30EB
S113019049F4803410F480E401C080E080580E9467
S11301A0AB0004C061E08C2F0E944D00CF910895F4
S11301B0CF93DF93EC012196FC018081882329F001
S11301C00E94C30089918111FBCFDF91CF910895E3
S11301D0CF93C82F8C9A8D9A8E9AA49AA59AA69A90
S11301E0A79AE0EAFFE03197F1F7AD9AAC9A0E9442
S11301F04900E0EEF4E03197F1F70E944900E0E1B4
S1130200F0E03197F1F70E944900E0E1F0E0319726
S1130210F1F7AC980E944900E0E1F0E03197F1F782
S113022088E20E94AB0088E00E94AB000E94BF00FD
S113023086E00E94AB008C2F0E94AB00CF91089502
S1130240CF93DF93CDB7DEB728970FB6F894DEBF10
S11302500FBECDBF84B7806884BF84B7806884BF75
S11302608CE00E94E80080E690E00E94D8002FEB2A
S113027087E299E0215080409040E1F700C00000FF
S11302800E94BF0061E081E00E94B50080E30E940B
S1130290C3004AE06EE670E080E090E00E94F9025C
S11302A060E080E00E94B5008EE690E00E94D800F5
S11302B04AE06EE670E081E090E00E94F90261E0BD
S11302C080E00E94B5008EE690E00E94D80011E024
S11302D0912C19821A821B821C821D821E8220E0AC
S11302E030E040E050E060E070E080E090E01887AB
S11302F09F824EC04AE06EE670E0C10101970E9401
S1130300F90260E080E00E94B5008EE690E00E9471
S1130310D8004AE06EE670E0C1010E94F90261E093
S113032080E00E94B5008EE690E00E94D8000F2E77
S1130330F4E6AF2EF02DB12CC12CD12CE12CF12CF4
S113034000E010E0222D332D442D552D662D772D00
S1130350882D992D0E940A02A0E00E94ED0241F42A
S113036061E089E00E94B50087E690E00E94D80031
S113037028853F8149815A816B817C818D819E8151
S113038028863F8249825A826B827C828D829E8239
S11303900F2EF4E6AF2EF02DB12CC12CD12CE12C74
S11303A0F12C00E010E00E940A02A0E00E94ED029D
S11303B041F460E089E00E94B50087E690E00E9485
S11303C0D800EFE5FAEE20E0E150F0402040E1F7FC
S11303D000C000000E94BF0028853F8149815A81E6
S11303E06B817C818D819E81A1E00E94E102222E9D
S11303F0332E442E552E662E772E882E992E2115B7
S1130400314E454F5540610571058105910509F04F
S113041071CF38CF689401C0E894F92FF12B12F012
S11304200C943E02A0E0B0E0E8E1F2E00C94B002EB
S1130430092E059422F40E949A02112392F4F0E802
S11304400F26FFEFE094F09400951095B094C094BB
S1130450D094A194BF0ACF0ADF0AEF0AFF0A0F0B58
S11304601F0B0E94490207FC0E949A02CDB7DEB717
S1130470ECE00C94CC02689401C0E8948F929F92B3
S1130480CF93DF930E944902DF91CF919F908F9089
S1130490089588249924F401E401B0E49F93AA27E1
S11304A09A158B049C04ED05FE05CF05D007A10722
S11304B098F4AD2FDC2FCF2FFE2FE92D982C892E09
S11304C0982F872F762F652F542F432F322F2227D3
S11304D0B85031F7BF9127C01B2EBF91BB27220F05
S11304E0331F441F551F661F771F881F991F881CC1
S11304F0991CEE1FFF1FCC1FDD1FAA1FBB1F8A14F0
S11305009B04EC05FD05CE05DF05A007B10748F007
S11305108A189B08EC09FD09CE09DF09A00BB10B71
S113052021601A94E1F62EF49401AF01BE01CD01CD
S1130530000C089560957095809590953095409540
S1130540509521953F4F4F4F5F4F6F4F7F4F8F4FC8
S11305509F4F08952F923F924F925F926F927F9296
S11305608F929F92AF92BF92CF92DF92EF92FF92BF
S11305700F931F93CF93DF93CDB7DEB7CA1BDB0B6B
S11305800FB6F894DEBF0FBECDBF09942A88398810
S113059048885F846E847D848C849B84AA84B98417
S11305A0C884DF80EE80FD800C811B81AA81B98123
S11305B0CE0FD11D0FB6F894DEBF0FBECDBFED0137
S11305C008950024A7FD00942A0F301D401D501DDE
S11305D0601D701D801D901D08950024A7FD0094CA
S11305E02A17300540055005600570058005900503
S11305F00895BB274A3031F4992322F4BDE2909543
S113060081959F4F0C940503BB27FB015527AA270F
S1130610880F991FAA1FA41710F0A41B839550518B
S1130620B9F7A05DAA3308F0A95DA193009779F703
S1130630B111B1931192CB010C941E03DC01FC01A6
S1130640672F71917723E1F7329704C07C916D9302
S113065070836291AE17BF07C8F30895F894FFCF73
S111066073687568616E006D7568616861008D
S9030000FC
