:100000000C942A000C943F000C943F000C943F0089
:100010000C943F000C943F000C943F000C943F0064
:100020000C943F000C943F000C943F000C943F0054
:100030000C943F000C943F000C943F000C943F0044
:100040000C943F000C943F000C943F000C943F0034
:100050000C943F0011241FBECFE5D8E0DEBFCDBF1A
:1000600010E0A0E6B0E0E6EEF5E002C005900D92EB
:10007000A436B107D9F70E9424010C94F1020C9424
:100080000000969A00C096980895CF93C82F6623D3
:1000900011F0949A01C094989598A49AA59AA69A5A
:1000A000A79AAF98AE98AD98AC98CC230CF4AF9AC1
:1000B000C6FDAE9AC5FDAD9AC4FDAC9A0E94410042
:1000C000AF98AE98AD98AC98C3FDAF9AC2FDAE9A0A
:1000D000C1FDAD9AC0FDAC9A0E944100AC9AAD9AA8
:1000E000AE9AAF9ACF910895882311F0949A01C0E7
:1000F0009498959AA498A598A698A798969A00C0BF
:100100009C9902C080E001C080E19D9980629E9927
:1001100080649F998068969800C0969A00C09C99C8
:1001200081609D9982609E9984609F99886096986D
:10013000089580E00E9474008823DCF300C080E012
:100140000E9474000895CF93C82F0E94990060E028
:100150008C2F0E944500CF910895611104C08058F2
:100160000E94A300089580540E94A300089581E096
:100170000E94A3000895CF93C82F0E949900CA300F
:1001800049F4803410F480E401C080E080580E947B
:10019000A30004C061E08C2F0E944500CF91089518
:1001A000CF93DF93EC012196FC018081882329F015
:1001B0000E94BB0089918111FBCFDF91CF910895FF
:1001C000CF93C82F8C9A8D9A8E9AA49AA59AA69AA4
:1001D000A79AE0EAFFE03197F1F7AD9AAC9A0E9456
:1001E0004100E0EEF4E03197F1F70E944100E0E1D8
:1001F000F0E03197F1F70E944100E0E1F0E0319743
:10020000F1F7AC980E944100E0E1F0E03197F1F79E
:1002100088E20E94A30088E00E94A3000E94B70029
:1002200086E00E94A3008C2F0E94A300CF91089526
:100230003E9A379A86B1876086B90895369A36997C
:10024000FECF84B195B10895CF93DF93CDB7DEB7DC
:1002500064970FB6F894DEBF0FBECDBF84B7806839
:1002600084BF84B7806884BF0E9418018CE00E941C
:10027000E0000F2EF4E1FF2EF02D8E010F5F1F4FD7
:100280000E94B700F8018F2D11928A95E9F70E941C
:100290001E01BC01882777FD8095982F0E94B1012F
:1002A00022ED30E24DEC52E40E941E020E947501E4
:1002B000E22FA42FF52F2AE0A8016E2F732F8A2F8B
:1002C0009F2F0E94B002C8010E94D00060E087E02A
:1002D0000E94AD0080E690E00E94D000E7EAF1E6DF
:1002E0003197F1F700C00000CBCFBEE304D008F493
:1002F00090E80895BFE322273327A90185D058F15C
:100300009F5740F1B91738F1BFE3B91B9927B8508F
:100310003AF4660F771F881F991FB395D2F316C062
:10032000B8504AF0232F342F452F562F672F782FA0
:100330008827B850BAF7B85F49F0869577956795E2
:100340005795479537952795BA95B9F70EF444D048
:1003500088940895889460E070E0CB010895E89453
:1003600009C097FB3EF490958095709561957F4FFD
:100370008F4F9F4F9923A9F0F92F96E9BB279395AB
:10038000F695879577956795B795F111F8CFFAF4BB
:10039000BB0F11F460FF1BC06F5F7F4F8F4F9F4FEC
:1003A00016C0882311F096E911C0772321F09EE84A
:1003B000872F762F05C0662371F096E8862F70E0B0
:1003C00060E02AF09A95660F771F881FDAF7880F8A
:1003D0009695879597F90895909580957095609575
:1003E00050954095309521953F4F4F4F5F4F6F4F40
:1003F0007F4F8F4F9F4F089557FD9058440F551FC3
:1004000059F05F3F71F04795880F97FB991F61F096
:100410009F3F79F087950895121613061406551F0D
:10042000F2CF4695F1DF08C0161617061806991F79
:10043000F1CF869571056105089408950BD078C0B9
:1004400069D028F06ED018F0952309F05AC05FC02B
:10045000112480C0D1DFA0F3959FD1F3950F50E018
:10046000551F629FF001729FBB27F00DB11D639F66
:10047000AA27F00DB11DAA1F649F6627B00DA11D0C
:10048000661F829F2227B00DA11D621F739FB00DB2
:10049000A11D621F839FA00D611D221F749F332722
:1004A000A00D611D231F849F600D211D822F762FBB
:1004B0006A2F11249F5750408AF0E1F088234AF0B8
:1004C000EE0FFF1FBB1F661F771F881F9150504004
:1004D000A9F79E3F510570F014C03CC05F3FECF39C
:1004E000983EDCF3869577956795B795F795E795F0
:1004F0009F5FC1F7FE2B880F911D9695879597F901
:10050000089597F99F6780E870E060E008959FEF95
:1005100080EC089500240A9416161706180609069A
:10052000089500240A941216130614060506089569
:10053000092E0394000C11F4882352F0BB0F40F4F1
:10054000BF2B11F460FF04C06F5F7F4F8F4F9F4F31
:100550000895E894BB2766277727CB0197F908957C
:10056000BB272A3051F4992342F4BDE2909580953F
:10057000709561957F4F8F4F9F4F0C94C002BB27A2
:10058000FA01A62F6217710581059105330B30FB27
:1005900066F0AA27660F771F881F991FAA1FA21748
:1005A00010F0A21B63953850A9F7A05DAA3308F09C
:1005B000A95DA19336F7B111B1931082CA010C94D1
:1005C000E102DC01FC01672F71917723E1F732979B
:1005D00004C07C916D9370836291AE17BF07C8F31E
:0605E0000895F894FFCF1E
:0405E6006D5600004E
:00000001FF
