:100000000C942A000C943F000C943F000C943F0089
:100010000C943F000C943F000C943F000C943F0064
:100020000C943F000C943F000C943F000C943F0054
:100030000C943F000C943F000C943F000C943F0044
:100040000C943F000C943F000C943F000C943F0034
:100050000C943F0011241FBECFE5D8E0DEBFCDBF1A
:1000600010E0A0E6B0E0ECE2F3E002C005900D92F3
:10007000A436B107D9F70E9424010C9494010C9482
:100080000000969A00C096980895CF93C82F6623D3
:1000900011F0949A01C094989598A49AA59AA69A5A
:1000A000A79AAF98AE98AD98AC98CC230CF4AF9AC1
:1000B000C6FDAE9AC5FDAD9AC4FDAC9A0E94410042
:1000C000AF98AE98AD98AC98C3FDAF9AC2FDAE9A0A
:1000D000C1FDAD9AC0FDAC9A0E944100AC9AAD9AA8
:1000E000AE9AAF9ACF910895882311F0949A01C0E7
:1000F0009498959AA498A598A698A798969A00C0BF
:100100009C9902C080E001C080E19D9980629E9927
:1001100080649F998068969800C0969A00C09C99C8
:1001200081609D9982609E9984609F99886096986D
:10013000089580E00E9474008823DCF300C080E012
:100140000E9474000895CF93C82F0E94990060E028
:100150008C2F0E944500CF910895611104C08058F2
:100160000E94A300089580540E94A300089581E096
:100170000E94A3000895CF93C82F0E949900CA300F
:1001800049F4803410F480E401C080E080580E947B
:10019000A30004C061E08C2F0E944500CF91089518
:1001A000CF93DF93EC012196FC018081882329F015
:1001B0000E94BB0089918111FBCFDF91CF910895FF
:1001C000CF93C82F8C9A8D9A8E9AA49AA59AA69AA4
:1001D000A79AE0EAFFE03197F1F7AD9AAC9A0E9456
:1001E0004100E0EEF4E03197F1F70E944100E0E1D8
:1001F000F0E03197F1F70E944100E0E1F0E0319743
:10020000F1F7AC980E944100E0E1F0E03197F1F79E
:1002100088E20E94A30088E00E94A3000E94B70029
:1002200086E00E94A3008C2F0E94A300CF91089526
:100230003E9A379A86B1876086B90895369A36997C
:10024000FECF84B195B10895CF93DF93CDB7DEB7DC
:1002500064970FB6F894DEBF0FBECDBF84B7806839
:1002600084BF84B7806884BF0E9418018CE00E941C
:10027000E0000F2EF4E1FF2EF02D8E010F5F1F4FD7
:100280000E94B700F8018F2D11928A95E9F70E941C
:100290001E014AE0B8010E945F01C8010E94D0001F
:1002A00060E087E00E94AD0080E690E00E94D00010
:1002B000E7EAF1E63197F1F700C00000E1CFBB2794
:1002C0004A3031F4992322F4BDE2909581959F4FF5
:1002D0000C946B01BB27FB015527AA27880F991F98
:1002E000AA1FA41710F0A41B83955051B9F7A05D65
:1002F000AA3308F0A95DA193009779F7B111B193E2
:100300001192CB010C948401DC01FC01672F7191E7
:100310007723E1F7329704C07C916D9370836291EB
:0C032000AE17BF07C8F30895F894FFCF94
:04032C006D5600000A
:00000001FF
