:100000000C942A000C9434000C9434000C943400AA
:100010000C9434000C9434000C9434000C94340090
:100020000C9434000C9434000C9434000C94340080
:100030000C9434000C9434000C9434000C94340070
:100040000C9434000C9434000C9434000C94340060
:100050000C94340011241FBECFE5D8E0DEBFCDBF25
:100060000E9442000C945F000C9400003E9A379A64
:1000700086B1876086B90895369A3699FECF84B1E5
:1000800095B1089580EC84BB84B7806884BF84B741
:10009000806884BF0E943600C1E00E943C009C0141
:1000A0002E5231092C30310520F485B3836085BB95
:1000B000F4CF8E9714F415BAF0CFC5BBEECFF894F9
:0200C000FFCF70
:00000001FF
