:100000000C942A000C9434000C9434000C943400AA
:100010000C9434000C9434000C9434000C94340090
:100020000C9434000C9434000C9434000C94340080
:100030000C9434000C9434000C9434000C94340070
:100040000C9434000C9434000C9434000C94340060
:100050000C94340011241FBECFE5D8E0DEBFCDBF25
:100060000E942B010C9493010C940000969A00C0FE
:1000700096980895CF93C82F662311F0949A01C0E3
:1000800094989598A49AA59AA69AA79AAF98AE988C
:10009000AD98AC98CC230CF4AF9AC6FDAE9AC5FDD2
:1000A000AD9AC4FDAC9A0E943600AF98AE98AD9858
:1000B000AC98C3FDAF9AC2FDAE9AC1FDAD9AC0FD2A
:1000C000AC9A0E943600AC9AAD9AAE9AAF9ACF9194
:1000D0000895882311F0949A01C09498959AA49851
:1000E000A598A698A798969A00C09C9902C080E00F
:1000F00001C080E19D9980629E9980649F9980688B
:10010000969800C0969A00C09C9981609D998260E3
:100110009E9984609F9988609698089580E00E94D7
:1001200069008823DCF300C080E00E946900089524
:10013000CF93C82F0E948E0060E08C2F0E943A005F
:10014000CF910895611104C080580E9498000895CD
:1001500080540E949800089581E00E9498000895BC
:10016000CF93C82F0E948E00CA3049F4803410F417
:1001700080E401C080E080580E94980004C061E0E3
:100180008C2F0E943A00CF910895CF93DF93EC011A
:100190002196FC018081882329F00E94B00089917A
:1001A0008111FBCFDF91CF910895CF93C82F8C9A07
:1001B0008D9A8E9AA49AA59AA69AA79AE0EAFFE049
:1001C0003197F1F7AD9AAC9A0E943600E0EEF4E078
:1001D0003197F1F70E943600E0E1F0E03197F1F756
:1001E0000E943600E0E1F0E03197F1F7AC980E9410
:1001F0003600E0E1F0E03197F1F788E20E949800E4
:1002000088E00E9498000E94AC0086E00E9498005E
:100210008C2F0E949800CF91089599B3892F8770F1
:1002200059F0892F837021F090FF04C084E005C04D
:1002300082E003C083E001C081E0292F207E31F0FD
:10024000907C11F023E003C022E001C021E090E0A7
:10025000821B91090895CF93DF93CDB7DEB728971E
:100260000FB6F894DEBF0FBECDBF8FEF87BBC09A2D
:1002700094B7906894BF94B7906894BF84BB1ABA3F
:100280008CE00E94D5000E94AC000E940D014AE063
:10029000BE016F5F7F4F0E945E0160E087E00E94B9
:1002A000A200CE0101960E94C50089E698E101975F
:1002B000F1F700C000000E94AC00E7CFBB274A3036
:1002C00031F4992322F4BDE2909581959F4F0C94CF
:1002D0006A01BB27FB015527AA27880F991FAA1F70
:1002E000A41710F0A41B83955051B9F7A05DAA3351
:1002F00008F0A95DA193009779F7B111B19311921C
:10030000CB010C948301DC01FC01672F71917723F1
:10031000E1F7329704C07C916D9370836291AE17C0
:0A032000BF07C8F30895F894FFCF5B
:00000001FF
