S0160000375F7365676D656E745F6D655F312E73726563C4
S11300000C942A000C943F000C943F000C943F0085
S11300100C943F000C943F000C943F000C943F0060
S11300200C943F000C943F000C943F000C943F0050
S11300300C943F000C943F000C943F000C943F0040
S11300400C943F000C943F000C943F000C943F0030
S11300500C943F0011241FBECFE5D8E0DEBFCDBF16
S113006010E0A0E6B0E0E4EDF1E002C005900D92EE
S1130070A038B107D9F70E9441000C94E8000C9411
S11300800000CF93DF93CDB7DEB7A0970FB6F894F7
S1130090DEBF0FBECDBF8FEF87BB8CE0E0E6F0E0A4
S11300A0DE01119601900D928A95E1F784E1ECE668
S11300B0F0E0DE011D9601900D928A95E1F740E093
S11300C050E09E012F5D3F4FA8E070E0B0EC00E0EF
S11300D010E060E435C0FA01EE0FFF1F81E090E00C
S11300E08C0F9D1FE80FF91F808188BB4630510596
S11300F054F49FEFE0E7F2E09150E040F040E1F784
S113010000C0000014C08A2F972F18BA68BBE7EA12
S1130110F1E63197F1F700C0000018BAE7EAF1E61A
S11301203197F1F700C000000197009771F718BAF2
S113013087EA91E60197F1F700C000004F5F5F4F37
S11301404730510544F236C018BA8A2F972FB8BBEE
S1130150E7EAF1E63197F1F700C0000018BAE7EAE0
S1130160F1E63197F1F700C000000197009779F7A5
S113017017C018BA87EA91E60197F1F700C00000AA
S11301808081329688BB9FEF40E782E091504040E7
S11301908040E1F700C00000E217F30751F7D4CF25
S11301A018BAE7EAF1E63197F1F700C00000402FF2
S11301B0512FC6CF8D8588BBFFEF40E782E0F15019
S11301C040408040E1F700C00000FE013F96D1CFDF
S10701D0F894FFCFCD
S11301D46D0074001C007400770054003F00060096
S11301E45B004F0066006D007D0007007F006F0018
S9030000FC
