S01600004C454420424C696E6B696E5F6D652E7372656341
S11300000C942A000C9434000C9434000C943400A6
S11300100C9434000C9434000C9434000C9434008C
S11300200C9434000C9434000C9434000C9434007C
S11300300C9434000C9434000C9434000C9434006C
S11300400C9434000C9434000C9434000C9434005C
S11300500C94340011241FBECFE5D8E0DEBFCDBF21
S11300600E9436000C943F010C94000084B7806811
S113007084BF84B7806884BF8FEF84BB81E090E045
S11300800F2EF5E0BF2EF02DA12C99249394812CF2
S1130090A8E0F0E0492C382CE0E010E8BE2F68948A
S11300A0FF24F2F800E06894DD24D4F8E12C68948D
S11300B0CC24C3F877247A9418C075BA2FE936E8AB
S11300C041E0215030404040E1F700C0000012BA46
S11300D0CFE9D6E821E0C150D0402040E1F700C08C
S11300E00000019602C0892D982D843091052CF3CF
S11300F04B2D5A2D16C085BBC7EAD1E62197F1F7DF
S113010000C00000880F991F2150310921153105C5
S113011091F7415051094115510519F44B2D5A2DB0
S113012022C02A2F3F2F842D932DE5CF65BB87EA6C
S113013091E60197F1F700C00000862F972F9923CD
S11301400CF4019695958795682F792F21503109E4
S11301502115310559F7415051094115510519F43B
S11301602B2D3A2D34C02A2F3F2F612F7B2FDECF2A
S113017085BBC7EAD1E62197F1F700C00000880FDC
S1130180991F415051094115510591F74A2F5F2F8D
S1130190612F7B2F65BB87EA91E60197F1F700C0D9
S11301A00000862F972F99230CF401969595879537
S11301B0682F792F415051094115510559F72150A4
S11301C031092115310519F46B2D7A2D51C04A2FAF
S11301D05F2F842D932DCCCF85B3862985BB85B322
S11301E0822B85BBCFE4D3EC2197F1F700C000004C
S11301F0E5BB89E698E10197F1F700C00000862D80
S1130200952D99230CF4019695958795682E592E72
S1130210220F331F4150510941155105E9F64F2D65
S1130220502F612E5B2E242D332D85B3822B85BB5D
S113023085B3862985BBCFE4D3EC2197F1F700C0C1
S11302400000E5BB220F331F862D952D99230CF456
S1130250019695958795682E592E4150510941155F
S1130260510519F7615071096115710509F43BCF06
S11302704F2D502F2D2D3E2D6C2C5B2EADCFF89491
S1050280FFCFAA
S9030000FC
